:100000000C943A000C9444000C9444000C9444006A
:100010000C9444000C9444000C9444000C94440050
:100020000C9444000C9444000C9444000C94440040
:100030000C9444000C9444000C9444000C94440030
:100040000C9444000C9444000C9444000C94440020
:100050000C9444000C9444000C9444000C94440010
:100060000C9444000C9444000C9444000C94440000
:100070000C94440011241FBECFEFD2E0DEBFCDBFF1
:100080000E9446000C94CA000C94000082E484BDD7
:1000900081E085BD89E187BD83EF91E00197F1F7AC
:1000A00000C00000279A87EE93E00197F1F700C0A7
:1000B000000027988AE596E30197F1F700C0000059
:1000C000279A87EC90E00197F1F700C0000027988D
:1000D00085E193E00197F1F700C00000279A87ECD3
:1000E00090E00197F1F700C0000027988DEF96E0AF
:1000F0000197F1F700C00000279A87EC90E0019784
:10010000F1F700C0000027988BE09BE70197F1F71B
:1001100000C00000279A87EE93E00197F1F700C036
:10012000000027988AE596E30197F1F700C00000E8
:10013000279A87EC90E00197F1F700C0000027981C
:1001400085E193E00197F1F700C00000279A87EC62
:1001500090E00197F1F700C0000027988DEF96E03E
:100160000197F1F700C00000279A87EC90E0019713
:10017000F1F700C00000279814B815B883B7817F45
:10018000846083BF83B7816083BF889583B78E7F88
:0801900083BFF2CFF894FFCF0A
:00000001FF
